{
  "contractName": "PayFund",
  "abi": [
    {
      "inputs": [
        {
          "name": "_name",
          "type": "string"
        }
      ],
      "payable": false,
      "stateMutability": "nonpayable",
      "type": "constructor"
    },
    {
      "payable": false,
      "stateMutability": "nonpayable",
      "type": "fallback"
    },
    {
      "anonymous": false,
      "inputs": [],
      "name": "fundEnd",
      "type": "event"
    },
    {
      "constant": false,
      "inputs": [],
      "name": "sendFund",
      "outputs": [],
      "payable": true,
      "stateMutability": "payable",
      "type": "function"
    },
    {
      "constant": false,
      "inputs": [],
      "name": "withdraw",
      "outputs": [],
      "payable": false,
      "stateMutability": "nonpayable",
      "type": "function"
    },
    {
      "constant": false,
      "inputs": [
        {
          "name": "_n",
          "type": "string"
        }
      ],
      "name": "setName",
      "outputs": [],
      "payable": false,
      "stateMutability": "nonpayable",
      "type": "function"
    },
    {
      "constant": true,
      "inputs": [],
      "name": "getName",
      "outputs": [
        {
          "name": "",
          "type": "string"
        }
      ],
      "payable": false,
      "stateMutability": "view",
      "type": "function"
    },
    {
      "constant": false,
      "inputs": [],
      "name": "getTotalAmt",
      "outputs": [
        {
          "name": "",
          "type": "uint256"
        }
      ],
      "payable": false,
      "stateMutability": "nonpayable",
      "type": "function"
    }
  ],
  "bytecode": "0x60606040526000600155341561001457600080fd5b60405161060f38038061060f83398101604052808051820191905050336000806101000a81548173ffffffffffffffffffffffffffffffffffffffff021916908373ffffffffffffffffffffffffffffffffffffffff160217905550806002908051906020019061008692919061008d565b5050610132565b828054600181600116156101000203166002900490600052602060002090601f016020900481019282601f106100ce57805160ff19168380011785556100fc565b828001600101855582156100fc579182015b828111156100fb5782518255916020019190600101906100e0565b5b509050610109919061010d565b5090565b61012f91905b8082111561012b576000816000905550600101610113565b5090565b90565b6104ce806101416000396000f30060606040526004361061006d576000357c0100000000000000000000000000000000000000000000000000000000900463ffffffff1680630db4674e1461007d57806317d7de7c146100a65780633ccfd60b14610134578063c47f002714610149578063dd0cf15d146101a6575b341561007857600080fd5b600080fd5b341561008857600080fd5b6100906101b0565b6040518082815260200191505060405180910390f35b34156100b157600080fd5b6100b96101ba565b6040518080602001828103825283818151815260200191508051906020019080838360005b838110156100f95780820151818401526020810190506100de565b50505050905090810190601f1680156101265780820380516001836020036101000a031916815260200191505b509250505060405180910390f35b341561013f57600080fd5b610147610262565b005b341561015457600080fd5b6101a4600480803590602001908201803590602001908080601f01602080910402602001604051908101604052809392919081815260200183838082843782019150505050505091905050610362565b005b6101ae61037c565b005b6000600154905090565b6101c26103e9565b60028054600181600116156101000203166002900480601f0160208091040260200160405190810160405280929190818152602001828054600181600116156101000203166002900480156102585780601f1061022d57610100808354040283529160200191610258565b820191906000526020600020905b81548152906001019060200180831161023b57829003601f168201915b5050505050905090565b6000809054906101000a900473ffffffffffffffffffffffffffffffffffffffff1673ffffffffffffffffffffffffffffffffffffffff163373ffffffffffffffffffffffffffffffffffffffff161415156102bd57600080fd5b600060015411156103605760006001819055506000809054906101000a900473ffffffffffffffffffffffffffffffffffffffff1673ffffffffffffffffffffffffffffffffffffffff166108fc6001549081150290604051600060405180830381858888f19350505050151561033357600080fd5b7f429dc972633137b41d1deafdfbf188e2263badd6cc411bcfa4c0847801e2ee5160405160405180910390a15b565b80600290805190602001906103789291906103fd565b5050565b34600360003373ffffffffffffffffffffffffffffffffffffffff1673ffffffffffffffffffffffffffffffffffffffff168152602001908152602001600020600082825401925050819055503460016000828254019250508190555034600154101515156103e757fe5b565b602060405190810160405280600081525090565b828054600181600116156101000203166002900490600052602060002090601f016020900481019282601f1061043e57805160ff191683800117855561046c565b8280016001018555821561046c579182015b8281111561046b578251825591602001919060010190610450565b5b509050610479919061047d565b5090565b61049f91905b8082111561049b576000816000905550600101610483565b5090565b905600a165627a7a723058209b3959cdcecc036b8e12fae0dddd9e9c587032f5fb439e00e22d5e62ac3ea34e0029",
  "source": "pragma solidity ^0.4.18;\n\ncontract PayFund {\n\n\n    \n    address owner;\n    uint256 totalAmt = 0;\n    string name;\n    mapping(address => uint) fundMap;\n\n\n    function PayFund(string _name) {\n\n        owner = msg.sender;\n        name = _name;\n    }\n    event fundEnd();\n    \n    function sendFund() payable {\n        \n        fundMap[msg.sender] += msg.value;\n        totalAmt += msg.value;\n        assert(totalAmt >= msg.value);\n    }\n\n    function withdraw() {\n        require(msg.sender == owner);\n        if (totalAmt > 0){\n            totalAmt = 0;\n            owner.transfer(totalAmt);\n            fundEnd();\n        }\n\n    }\n\n    function setName(string _n) {\n        name = _n;\n    }\n\n    function getName() public view returns(string) {\n        return name;\n        \n    }\n\n    function getTotalAmt() returns(uint) {\n        return totalAmt;\n    }\n \n    function()  {\n        revert();\n    }\n\n    \n}\n",
  "sourcePath": "/Users/adithyaj/Documents/tech/active/blockchain-dev/cfApp/cf/contracts/PayFund.sol",
  "compiler": {
    "name": "solc",
    "version": "0.4.19+commit.c4cbbb05.Emscripten.clang"
  },
  "schemaVersion": "1.0.1",
  "updatedAt": "2018-03-10T21:17:43.000Z"
}