{
  "contractName": "PayFund",
  "abi": [
    {
      "inputs": [
        {
          "name": "_name",
          "type": "string"
        }
      ],
      "payable": false,
      "stateMutability": "nonpayable",
      "type": "constructor"
    },
    {
      "payable": false,
      "stateMutability": "nonpayable",
      "type": "fallback"
    },
    {
      "anonymous": false,
      "inputs": [],
      "name": "newFund",
      "type": "event"
    },
    {
      "anonymous": false,
      "inputs": [],
      "name": "fundingDone",
      "type": "event"
    },
    {
      "anonymous": false,
      "inputs": [],
      "name": "fundEnd",
      "type": "event"
    },
    {
      "constant": false,
      "inputs": [],
      "name": "sendFund",
      "outputs": [],
      "payable": true,
      "stateMutability": "payable",
      "type": "function"
    },
    {
      "constant": false,
      "inputs": [],
      "name": "withdraw",
      "outputs": [],
      "payable": false,
      "stateMutability": "nonpayable",
      "type": "function"
    },
    {
      "constant": false,
      "inputs": [
        {
          "name": "_n",
          "type": "string"
        }
      ],
      "name": "setName",
      "outputs": [],
      "payable": false,
      "stateMutability": "nonpayable",
      "type": "function"
    },
    {
      "constant": true,
      "inputs": [],
      "name": "getName",
      "outputs": [
        {
          "name": "",
          "type": "string"
        }
      ],
      "payable": false,
      "stateMutability": "view",
      "type": "function"
    },
    {
      "constant": false,
      "inputs": [],
      "name": "getTotalAmt",
      "outputs": [
        {
          "name": "",
          "type": "uint256"
        }
      ],
      "payable": false,
      "stateMutability": "nonpayable",
      "type": "function"
    },
    {
      "constant": false,
      "inputs": [],
      "name": "incTest",
      "outputs": [],
      "payable": false,
      "stateMutability": "nonpayable",
      "type": "function"
    }
  ],
  "bytecode": "0x60606040526000600155341561001457600080fd5b60405161064138038061064183398101604052808051820191905050336000806101000a81548173ffffffffffffffffffffffffffffffffffffffff021916908373ffffffffffffffffffffffffffffffffffffffff160217905550806002908051906020019061008692919061008d565b5050610132565b828054600181600116156101000203166002900490600052602060002090601f016020900481019282601f106100ce57805160ff19168380011785556100fc565b828001600101855582156100fc579182015b828111156100fb5782518255916020019190600101906100e0565b5b509050610109919061010d565b5090565b61012f91905b8082111561012b576000816000905550600101610113565b5090565b90565b610500806101416000396000f300606060405260043610610078576000357c0100000000000000000000000000000000000000000000000000000000900463ffffffff1680630db4674e1461008857806317d7de7c146100b15780632b982c0b1461013f5780633ccfd60b14610154578063c47f002714610169578063dd0cf15d146101c6575b341561008357600080fd5b600080fd5b341561009357600080fd5b61009b6101d0565b6040518082815260200191505060405180910390f35b34156100bc57600080fd5b6100c46101da565b6040518080602001828103825283818151815260200191508051906020019080838360005b838110156101045780820151818401526020810190506100e9565b50505050905090810190601f1680156101315780820380516001836020036101000a031916815260200191505b509250505060405180910390f35b341561014a57600080fd5b610152610282565b005b341561015f57600080fd5b610167610294565b005b341561017457600080fd5b6101c4600480803590602001908201803590602001908080601f01602080910402602001604051908101604052809392919081815260200183838082843782019150505050505091905050610394565b005b6101ce6103ae565b005b6000600154905090565b6101e261041b565b60028054600181600116156101000203166002900480601f0160208091040260200160405190810160405280929190818152602001828054600181600116156101000203166002900480156102785780601f1061024d57610100808354040283529160200191610278565b820191906000526020600020905b81548152906001019060200180831161025b57829003601f168201915b5050505050905090565b60018060008282540192505081905550565b6000809054906101000a900473ffffffffffffffffffffffffffffffffffffffff1673ffffffffffffffffffffffffffffffffffffffff163373ffffffffffffffffffffffffffffffffffffffff161415156102ef57600080fd5b60006001541115610392576000809054906101000a900473ffffffffffffffffffffffffffffffffffffffff1673ffffffffffffffffffffffffffffffffffffffff166108fc6001549081150290604051600060405180830381858888f19350505050151561035d57600080fd5b60006001819055507f429dc972633137b41d1deafdfbf188e2263badd6cc411bcfa4c0847801e2ee5160405160405180910390a15b565b80600290805190602001906103aa92919061042f565b5050565b34600360003373ffffffffffffffffffffffffffffffffffffffff1673ffffffffffffffffffffffffffffffffffffffff1681526020019081526020016000206000828254019250508190555034600160008282540192505081905550346001541015151561041957fe5b565b602060405190810160405280600081525090565b828054600181600116156101000203166002900490600052602060002090601f016020900481019282601f1061047057805160ff191683800117855561049e565b8280016001018555821561049e579182015b8281111561049d578251825591602001919060010190610482565b5b5090506104ab91906104af565b5090565b6104d191905b808211156104cd5760008160009055506001016104b5565b5090565b905600a165627a7a72305820f35e41549f3a0c5ea41c168b228ea676e54b5e54896ef9bb798f2015d0e9ff0c0029",
  "source": "pragma solidity ^0.4.18;\n\ncontract PayFund {\n\n\n    \n    address owner;\n    uint totalAmt = 0;\n    string name;\n    mapping(address => uint) fundMap;\n\n\n    event newFund();\n    event fundingDone();\n    function PayFund(string _name) {\n\n        owner = msg.sender;\n        name = _name;\n    }\n    event fundEnd();\n    \n    function sendFund() payable {\n        \n        fundMap[msg.sender] += msg.value;\n        totalAmt += msg.value;\n        assert(totalAmt >= msg.value);\n    }\n\n    function withdraw() {\n        require(msg.sender == owner);\n        if (totalAmt > 0){\n            owner.transfer(totalAmt);\n            totalAmt = 0;\n            fundEnd();\n        }\n\n    }\n\n    function setName(string _n) {\n        name = _n;\n    }\n\n    function getName() public view returns(string) {\n        return name;\n        \n    }\n\n    function getTotalAmt() returns(uint) {\n        return totalAmt;\n    }\n\n    function incTest() {\n        totalAmt +=1;\n    }\n    \n    function()  {\n        revert();\n    }\n\n    \n}\n",
  "sourcePath": "/Users/adithyaj/Documents/tech/active/blockchain-dev/cfApp/cf/contracts/PayFund.sol",
  "compiler": {
    "name": "solc",
    "version": "0.4.19+commit.c4cbbb05.Emscripten.clang"
  },
  "schemaVersion": "1.0.1",
  "updatedAt": "2018-03-05T10:07:42.557Z"
}